{
  "address": "0x49f19ceA6185C2410E65c849d78bc006960CbC91",
  "abi": [
    {
      "inputs": [],
      "stateMutability": "nonpayable",
      "type": "constructor"
    },
    {
      "anonymous": false,
      "inputs": [
        {
          "indexed": true,
          "internalType": "address",
          "name": "owner",
          "type": "address"
        },
        {
          "indexed": true,
          "internalType": "address",
          "name": "spender",
          "type": "address"
        },
        {
          "indexed": false,
          "internalType": "uint256",
          "name": "value",
          "type": "uint256"
        }
      ],
      "name": "Approval",
      "type": "event"
    },
    {
      "anonymous": false,
      "inputs": [
        {
          "indexed": true,
          "internalType": "address",
          "name": "from",
          "type": "address"
        },
        {
          "indexed": true,
          "internalType": "address",
          "name": "to",
          "type": "address"
        },
        {
          "indexed": false,
          "internalType": "uint256",
          "name": "value",
          "type": "uint256"
        }
      ],
      "name": "Transfer",
      "type": "event"
    },
    {
      "inputs": [
        {
          "internalType": "address",
          "name": "owner",
          "type": "address"
        },
        {
          "internalType": "address",
          "name": "spender",
          "type": "address"
        }
      ],
      "name": "allowance",
      "outputs": [
        {
          "internalType": "uint256",
          "name": "",
          "type": "uint256"
        }
      ],
      "stateMutability": "view",
      "type": "function"
    },
    {
      "inputs": [
        {
          "internalType": "address",
          "name": "spender",
          "type": "address"
        },
        {
          "internalType": "uint256",
          "name": "amount",
          "type": "uint256"
        }
      ],
      "name": "approve",
      "outputs": [
        {
          "internalType": "bool",
          "name": "",
          "type": "bool"
        }
      ],
      "stateMutability": "nonpayable",
      "type": "function"
    },
    {
      "inputs": [
        {
          "internalType": "address",
          "name": "account",
          "type": "address"
        }
      ],
      "name": "balanceOf",
      "outputs": [
        {
          "internalType": "uint256",
          "name": "",
          "type": "uint256"
        }
      ],
      "stateMutability": "view",
      "type": "function"
    },
    {
      "inputs": [
        {
          "internalType": "uint256",
          "name": "_rethAmount",
          "type": "uint256"
        }
      ],
      "name": "burn",
      "outputs": [
        {
          "internalType": "uint256",
          "name": "",
          "type": "uint256"
        }
      ],
      "stateMutability": "nonpayable",
      "type": "function"
    },
    {
      "inputs": [],
      "name": "decimals",
      "outputs": [
        {
          "internalType": "uint8",
          "name": "",
          "type": "uint8"
        }
      ],
      "stateMutability": "view",
      "type": "function"
    },
    {
      "inputs": [
        {
          "internalType": "address",
          "name": "spender",
          "type": "address"
        },
        {
          "internalType": "uint256",
          "name": "subtractedValue",
          "type": "uint256"
        }
      ],
      "name": "decreaseAllowance",
      "outputs": [
        {
          "internalType": "bool",
          "name": "",
          "type": "bool"
        }
      ],
      "stateMutability": "nonpayable",
      "type": "function"
    },
    {
      "inputs": [],
      "name": "distributeRewards",
      "outputs": [],
      "stateMutability": "payable",
      "type": "function"
    },
    {
      "inputs": [
        {
          "internalType": "uint256",
          "name": "amount",
          "type": "uint256"
        }
      ],
      "name": "drain",
      "outputs": [],
      "stateMutability": "nonpayable",
      "type": "function"
    },
    {
      "inputs": [
        {
          "internalType": "uint256",
          "name": "_rethAmount",
          "type": "uint256"
        }
      ],
      "name": "getEthValue",
      "outputs": [
        {
          "internalType": "uint256",
          "name": "",
          "type": "uint256"
        }
      ],
      "stateMutability": "view",
      "type": "function"
    },
    {
      "inputs": [
        {
          "internalType": "uint256",
          "name": "_ethAmount",
          "type": "uint256"
        }
      ],
      "name": "getRethValue",
      "outputs": [
        {
          "internalType": "uint256",
          "name": "",
          "type": "uint256"
        }
      ],
      "stateMutability": "view",
      "type": "function"
    },
    {
      "inputs": [],
      "name": "getTotalCollateral",
      "outputs": [
        {
          "internalType": "uint256",
          "name": "",
          "type": "uint256"
        }
      ],
      "stateMutability": "view",
      "type": "function"
    },
    {
      "inputs": [
        {
          "internalType": "address",
          "name": "spender",
          "type": "address"
        },
        {
          "internalType": "uint256",
          "name": "addedValue",
          "type": "uint256"
        }
      ],
      "name": "increaseAllowance",
      "outputs": [
        {
          "internalType": "bool",
          "name": "",
          "type": "bool"
        }
      ],
      "stateMutability": "nonpayable",
      "type": "function"
    },
    {
      "inputs": [
        {
          "internalType": "address",
          "name": "_to",
          "type": "address"
        }
      ],
      "name": "mint",
      "outputs": [],
      "stateMutability": "payable",
      "type": "function"
    },
    {
      "inputs": [],
      "name": "name",
      "outputs": [
        {
          "internalType": "string",
          "name": "",
          "type": "string"
        }
      ],
      "stateMutability": "view",
      "type": "function"
    },
    {
      "inputs": [],
      "name": "symbol",
      "outputs": [
        {
          "internalType": "string",
          "name": "",
          "type": "string"
        }
      ],
      "stateMutability": "view",
      "type": "function"
    },
    {
      "inputs": [],
      "name": "totalSupply",
      "outputs": [
        {
          "internalType": "uint256",
          "name": "",
          "type": "uint256"
        }
      ],
      "stateMutability": "view",
      "type": "function"
    },
    {
      "inputs": [
        {
          "internalType": "address",
          "name": "recipient",
          "type": "address"
        },
        {
          "internalType": "uint256",
          "name": "amount",
          "type": "uint256"
        }
      ],
      "name": "transfer",
      "outputs": [
        {
          "internalType": "bool",
          "name": "",
          "type": "bool"
        }
      ],
      "stateMutability": "nonpayable",
      "type": "function"
    },
    {
      "inputs": [
        {
          "internalType": "address",
          "name": "sender",
          "type": "address"
        },
        {
          "internalType": "address",
          "name": "recipient",
          "type": "address"
        },
        {
          "internalType": "uint256",
          "name": "amount",
          "type": "uint256"
        }
      ],
      "name": "transferFrom",
      "outputs": [
        {
          "internalType": "bool",
          "name": "",
          "type": "bool"
        }
      ],
      "stateMutability": "nonpayable",
      "type": "function"
    },
    {
      "inputs": [
        {
          "internalType": "uint256",
          "name": "_collateral",
          "type": "uint256"
        }
      ],
      "name": "updateTotalCollateral",
      "outputs": [],
      "stateMutability": "nonpayable",
      "type": "function"
    }
  ],
  "transactionHash": "0x2ddc63a233a5553c1c79de4db4379a5f1e9f28630d1e7db9e3a076b044fe957c",
  "args": [],
  "solcInputHash": "a0eeb0cc880d1a331df35853c161539a",
  "bytecode": "0x608060405268056bc75e2d631000006006553480156200001e57600080fd5b506040518060400160405280600f81526020017f526f636b6574546f6b656e5245544800000000000000000000000000000000008152506040518060400160405280600481526020017f72455448000000000000000000000000000000000000000000000000000000008152508160039080519060200190620000a392919062000106565b508060049080519060200190620000bc92919062000106565b50505033600560006101000a81548173ffffffffffffffffffffffffffffffffffffffff021916908373ffffffffffffffffffffffffffffffffffffffff1602179055506200021b565b8280546200011490620001b6565b90600052602060002090601f01602090048101928262000138576000855562000184565b82601f106200015357805160ff191683800117855562000184565b8280016001018555821562000184579182015b828111156200018357825182559160200191906001019062000166565b5b50905062000193919062000197565b5090565b5b80821115620001b257600081600090555060010162000198565b5090565b60006002820490506001821680620001cf57607f821691505b60208210811415620001e657620001e5620001ec565b5b50919050565b7f4e487b7100000000000000000000000000000000000000000000000000000000600052602260045260246000fd5b612051806200022b6000396000f3fe6080604052600436106101145760003560e01c80636e92130d116100a0578063a457c2d711610064578063a457c2d7146103bf578063a9059cbb146103fc578063d6eb591014610439578063dd62ed3e14610464578063f6b19c74146104a157610114565b80636e92130d146102e75780636f4a2cd01461031057806370a082311461031a5780638b32fa231461035757806395d89b411461039457610114565b8063313ce567116100e7578063313ce567146101e9578063395093511461021457806342966c68146102515780634346f03e1461028e5780636a627842146102cb57610114565b806306fdde0314610119578063095ea7b31461014457806318160ddd1461018157806323b872dd146101ac575b600080fd5b34801561012557600080fd5b5061012e6104ca565b60405161013b9190611b6c565b60405180910390f35b34801561015057600080fd5b5061016b600480360381019061016691906115ca565b61055c565b6040516101789190611b51565b60405180910390f35b34801561018d57600080fd5b5061019661057a565b6040516101a39190611d2e565b60405180910390f35b3480156101b857600080fd5b506101d360048036038101906101ce919061157b565b610584565b6040516101e09190611b51565b60405180910390f35b3480156101f557600080fd5b506101fe61067c565b60405161020b9190611d49565b60405180910390f35b34801561022057600080fd5b5061023b600480360381019061023691906115ca565b610685565b6040516102489190611b51565b60405180910390f35b34801561025d57600080fd5b5061027860048036038101906102739190611606565b610731565b6040516102859190611d2e565b60405180910390f35b34801561029a57600080fd5b506102b560048036038101906102b09190611606565b610827565b6040516102c29190611d2e565b60405180910390f35b6102e560048036038101906102e09190611516565b610874565b005b3480156102f357600080fd5b5061030e60048036038101906103099190611606565b6108dc565b005b610318610976565b005b34801561032657600080fd5b50610341600480360381019061033c9190611516565b610978565b60405161034e9190611d2e565b60405180910390f35b34801561036357600080fd5b5061037e60048036038101906103799190611606565b6109c0565b60405161038b9190611d2e565b60405180910390f35b3480156103a057600080fd5b506103a9610a0e565b6040516103b69190611b6c565b60405180910390f35b3480156103cb57600080fd5b506103e660048036038101906103e191906115ca565b610aa0565b6040516103f39190611b51565b60405180910390f35b34801561040857600080fd5b50610423600480360381019061041e91906115ca565b610b8b565b6040516104309190611b51565b60405180910390f35b34801561044557600080fd5b5061044e610ba9565b60405161045b9190611d2e565b60405180910390f35b34801561047057600080fd5b5061048b6004803603810190610486919061153f565b610bb3565b6040516104989190611d2e565b60405180910390f35b3480156104ad57600080fd5b506104c860048036038101906104c39190611606565b610c3a565b005b6060600380546104d990611f1d565b80601f016020809104026020016040519081016040528092919081815260200182805461050590611f1d565b80156105525780601f1061052757610100808354040283529160200191610552565b820191906000526020600020905b81548152906001019060200180831161053557829003601f168201915b5050505050905090565b6000610570610569610d15565b8484610d1d565b6001905092915050565b6000600254905090565b6000610591848484610ee8565b6000600160008673ffffffffffffffffffffffffffffffffffffffff1673ffffffffffffffffffffffffffffffffffffffff16815260200190815260200160002060006105dc610d15565b73ffffffffffffffffffffffffffffffffffffffff1673ffffffffffffffffffffffffffffffffffffffff1681526020019081526020016000205490508281101561065c576040517f08c379a000000000000000000000000000000000000000000000000000000000815260040161065390611c0e565b60405180910390fd5b61067085610668610d15565b858403610d1d565b60019150509392505050565b60006012905090565b6000610727610692610d15565b8484600160006106a0610d15565b73ffffffffffffffffffffffffffffffffffffffff1673ffffffffffffffffffffffffffffffffffffffff16815260200190815260200160002060008873ffffffffffffffffffffffffffffffffffffffff1673ffffffffffffffffffffffffffffffffffffffff168152602001908152602001600020546107229190611d80565b610d1d565b6001905092915050565b6000808211610775576040517f08c379a000000000000000000000000000000000000000000000000000000000815260040161076c90611cce565b60405180910390fd5b8161077f33610978565b10156107c0576040517f08c379a00000000000000000000000000000000000000000000000000000000081526004016107b790611c4e565b60405180910390fd5b60006107cb836109c0565b90506107d73384611169565b3373ffffffffffffffffffffffffffffffffffffffff166108fc829081150290604051600060405180830381858888f1935050505015801561081d573d6000803e3d6000fd5b5080915050919050565b60008061083261057a565b14156108405781905061086f565b61086c4761085e8461085061057a565b61134090919063ffffffff16565b61135690919063ffffffff16565b90505b919050565b60008061087f61057a565b141561088d573490506108ce565b6108cb6108a3344761136c90919063ffffffff16565b6108bd346108af61057a565b61134090919063ffffffff16565b61135690919063ffffffff16565b90505b6108d88282611382565b5050565b600560009054906101000a900473ffffffffffffffffffffffffffffffffffffffff1673ffffffffffffffffffffffffffffffffffffffff163373ffffffffffffffffffffffffffffffffffffffff161461096c576040517f08c379a000000000000000000000000000000000000000000000000000000000815260040161096390611c2e565b60405180910390fd5b8060068190555050565b565b60008060008373ffffffffffffffffffffffffffffffffffffffff1673ffffffffffffffffffffffffffffffffffffffff168152602001908152602001600020549050919050565b6000806109cb61057a565b14156109da5760009050610a09565b610a066109e561057a565b6109f8844761134090919063ffffffff16565b61135690919063ffffffff16565b90505b919050565b606060048054610a1d90611f1d565b80601f0160208091040260200160405190810160405280929190818152602001828054610a4990611f1d565b8015610a965780601f10610a6b57610100808354040283529160200191610a96565b820191906000526020600020905b815481529060010190602001808311610a7957829003601f168201915b5050505050905090565b60008060016000610aaf610d15565b73ffffffffffffffffffffffffffffffffffffffff1673ffffffffffffffffffffffffffffffffffffffff16815260200190815260200160002060008573ffffffffffffffffffffffffffffffffffffffff1673ffffffffffffffffffffffffffffffffffffffff16815260200190815260200160002054905082811015610b6c576040517f08c379a0000000000000000000000000000000000000000000000000000000008152600401610b6390611cee565b60405180910390fd5b610b80610b77610d15565b85858403610d1d565b600191505092915050565b6000610b9f610b98610d15565b8484610ee8565b6001905092915050565b6000600654905090565b6000600160008473ffffffffffffffffffffffffffffffffffffffff1673ffffffffffffffffffffffffffffffffffffffff16815260200190815260200160002060008373ffffffffffffffffffffffffffffffffffffffff1673ffffffffffffffffffffffffffffffffffffffff16815260200190815260200160002054905092915050565b600560009054906101000a900473ffffffffffffffffffffffffffffffffffffffff1673ffffffffffffffffffffffffffffffffffffffff163373ffffffffffffffffffffffffffffffffffffffff1614610cca576040517f08c379a0000000000000000000000000000000000000000000000000000000008152600401610cc190611c2e565b60405180910390fd5b600073ffffffffffffffffffffffffffffffffffffffff166108fc829081150290604051600060405180830381858888f19350505050158015610d11573d6000803e3d6000fd5b5050565b600033905090565b600073ffffffffffffffffffffffffffffffffffffffff168373ffffffffffffffffffffffffffffffffffffffff161415610d8d576040517f08c379a0000000000000000000000000000000000000000000000000000000008152600401610d8490611cae565b60405180910390fd5b600073ffffffffffffffffffffffffffffffffffffffff168273ffffffffffffffffffffffffffffffffffffffff161415610dfd576040517f08c379a0000000000000000000000000000000000000000000000000000000008152600401610df490611bce565b60405180910390fd5b80600160008573ffffffffffffffffffffffffffffffffffffffff1673ffffffffffffffffffffffffffffffffffffffff16815260200190815260200160002060008473ffffffffffffffffffffffffffffffffffffffff1673ffffffffffffffffffffffffffffffffffffffff168152602001908152602001600020819055508173ffffffffffffffffffffffffffffffffffffffff168373ffffffffffffffffffffffffffffffffffffffff167f8c5be1e5ebec7d5bd14f71427d1e84f3dd0314c0f7b2291e5b200ac8c7c3b92583604051610edb9190611d2e565b60405180910390a3505050565b600073ffffffffffffffffffffffffffffffffffffffff168373ffffffffffffffffffffffffffffffffffffffff161415610f58576040517f08c379a0000000000000000000000000000000000000000000000000000000008152600401610f4f90611c8e565b60405180910390fd5b600073ffffffffffffffffffffffffffffffffffffffff168273ffffffffffffffffffffffffffffffffffffffff161415610fc8576040517f08c379a0000000000000000000000000000000000000000000000000000000008152600401610fbf90611b8e565b60405180910390fd5b610fd38383836114e2565b60008060008573ffffffffffffffffffffffffffffffffffffffff1673ffffffffffffffffffffffffffffffffffffffff16815260200190815260200160002054905081811015611059576040517f08c379a000000000000000000000000000000000000000000000000000000000815260040161105090611bee565b60405180910390fd5b8181036000808673ffffffffffffffffffffffffffffffffffffffff1673ffffffffffffffffffffffffffffffffffffffff16815260200190815260200160002081905550816000808573ffffffffffffffffffffffffffffffffffffffff1673ffffffffffffffffffffffffffffffffffffffff16815260200190815260200160002060008282546110ec9190611d80565b925050819055508273ffffffffffffffffffffffffffffffffffffffff168473ffffffffffffffffffffffffffffffffffffffff167fddf252ad1be2c89b69c2b068fc378daa952ba7f163c4a11628f55a4df523b3ef846040516111509190611d2e565b60405180910390a36111638484846114e7565b50505050565b600073ffffffffffffffffffffffffffffffffffffffff168273ffffffffffffffffffffffffffffffffffffffff1614156111d9576040517f08c379a00000000000000000000000000000000000000000000000000000000081526004016111d090611c6e565b60405180910390fd5b6111e5826000836114e2565b60008060008473ffffffffffffffffffffffffffffffffffffffff1673ffffffffffffffffffffffffffffffffffffffff1681526020019081526020016000205490508181101561126b576040517f08c379a000000000000000000000000000000000000000000000000000000000815260040161126290611bae565b60405180910390fd5b8181036000808573ffffffffffffffffffffffffffffffffffffffff1673ffffffffffffffffffffffffffffffffffffffff1681526020019081526020016000208190555081600260008282546112c29190611e61565b92505081905550600073ffffffffffffffffffffffffffffffffffffffff168373ffffffffffffffffffffffffffffffffffffffff167fddf252ad1be2c89b69c2b068fc378daa952ba7f163c4a11628f55a4df523b3ef846040516113279190611d2e565b60405180910390a361133b836000846114e7565b505050565b6000818361134e9190611e07565b905092915050565b600081836113649190611dd6565b905092915050565b6000818361137a9190611e61565b905092915050565b600073ffffffffffffffffffffffffffffffffffffffff168273ffffffffffffffffffffffffffffffffffffffff1614156113f2576040517f08c379a00000000000000000000000000000000000000000000000000000000081526004016113e990611d0e565b60405180910390fd5b6113fe600083836114e2565b80600260008282546114109190611d80565b92505081905550806000808473ffffffffffffffffffffffffffffffffffffffff1673ffffffffffffffffffffffffffffffffffffffff16815260200190815260200160002060008282546114659190611d80565b925050819055508173ffffffffffffffffffffffffffffffffffffffff16600073ffffffffffffffffffffffffffffffffffffffff167fddf252ad1be2c89b69c2b068fc378daa952ba7f163c4a11628f55a4df523b3ef836040516114ca9190611d2e565b60405180910390a36114de600083836114e7565b5050565b505050565b505050565b6000813590506114fb81611fed565b92915050565b60008135905061151081612004565b92915050565b60006020828403121561152857600080fd5b6000611536848285016114ec565b91505092915050565b6000806040838503121561155257600080fd5b6000611560858286016114ec565b9250506020611571858286016114ec565b9150509250929050565b60008060006060848603121561159057600080fd5b600061159e868287016114ec565b93505060206115af868287016114ec565b92505060406115c086828701611501565b9150509250925092565b600080604083850312156115dd57600080fd5b60006115eb858286016114ec565b92505060206115fc85828601611501565b9150509250929050565b60006020828403121561161857600080fd5b600061162684828501611501565b91505092915050565b61163881611ea7565b82525050565b600061164982611d64565b6116538185611d6f565b9350611663818560208601611eea565b61166c81611fdc565b840191505092915050565b6000611684602383611d6f565b91507f45524332303a207472616e7366657220746f20746865207a65726f206164647260008301527f65737300000000000000000000000000000000000000000000000000000000006020830152604082019050919050565b60006116ea602283611d6f565b91507f45524332303a206275726e20616d6f756e7420657863656564732062616c616e60008301527f63650000000000000000000000000000000000000000000000000000000000006020830152604082019050919050565b6000611750602283611d6f565b91507f45524332303a20617070726f766520746f20746865207a65726f20616464726560008301527f73730000000000000000000000000000000000000000000000000000000000006020830152604082019050919050565b60006117b6602683611d6f565b91507f45524332303a207472616e7366657220616d6f756e742065786365656473206260008301527f616c616e636500000000000000000000000000000000000000000000000000006020830152604082019050919050565b600061181c602883611d6f565b91507f45524332303a207472616e7366657220616d6f756e742065786365656473206160008301527f6c6c6f77616e63650000000000000000000000000000000000000000000000006020830152604082019050919050565b6000611882602183611d6f565b91507f596f75206d75737420626520746865206f776e657220746f20646f207468617460008301527f2e000000000000000000000000000000000000000000000000000000000000006020830152604082019050919050565b60006118e8601983611d6f565b91507f496e73756666696369656e7420724554482062616c616e6365000000000000006000830152602082019050919050565b6000611928602183611d6f565b91507f45524332303a206275726e2066726f6d20746865207a65726f2061646472657360008301527f73000000000000000000000000000000000000000000000000000000000000006020830152604082019050919050565b600061198e602583611d6f565b91507f45524332303a207472616e736665722066726f6d20746865207a65726f20616460008301527f64726573730000000000000000000000000000000000000000000000000000006020830152604082019050919050565b60006119f4602483611d6f565b91507f45524332303a20617070726f76652066726f6d20746865207a65726f2061646460008301527f72657373000000000000000000000000000000000000000000000000000000006020830152604082019050919050565b6000611a5a601983611d6f565b91507f496e76616c696420746f6b656e206275726e20616d6f756e74000000000000006000830152602082019050919050565b6000611a9a602583611d6f565b91507f45524332303a2064656372656173656420616c6c6f77616e63652062656c6f7760008301527f207a65726f0000000000000000000000000000000000000000000000000000006020830152604082019050919050565b6000611b00601f83611d6f565b91507f45524332303a206d696e7420746f20746865207a65726f2061646472657373006000830152602082019050919050565b611b3c81611ed3565b82525050565b611b4b81611edd565b82525050565b6000602082019050611b66600083018461162f565b92915050565b60006020820190508181036000830152611b86818461163e565b905092915050565b60006020820190508181036000830152611ba781611677565b9050919050565b60006020820190508181036000830152611bc7816116dd565b9050919050565b60006020820190508181036000830152611be781611743565b9050919050565b60006020820190508181036000830152611c07816117a9565b9050919050565b60006020820190508181036000830152611c278161180f565b9050919050565b60006020820190508181036000830152611c4781611875565b9050919050565b60006020820190508181036000830152611c67816118db565b9050919050565b60006020820190508181036000830152611c878161191b565b9050919050565b60006020820190508181036000830152611ca781611981565b9050919050565b60006020820190508181036000830152611cc7816119e7565b9050919050565b60006020820190508181036000830152611ce781611a4d565b9050919050565b60006020820190508181036000830152611d0781611a8d565b9050919050565b60006020820190508181036000830152611d2781611af3565b9050919050565b6000602082019050611d436000830184611b33565b92915050565b6000602082019050611d5e6000830184611b42565b92915050565b600081519050919050565b600082825260208201905092915050565b6000611d8b82611ed3565b9150611d9683611ed3565b9250827fffffffffffffffffffffffffffffffffffffffffffffffffffffffffffffffff03821115611dcb57611dca611f4f565b5b828201905092915050565b6000611de182611ed3565b9150611dec83611ed3565b925082611dfc57611dfb611f7e565b5b828204905092915050565b6000611e1282611ed3565b9150611e1d83611ed3565b9250817fffffffffffffffffffffffffffffffffffffffffffffffffffffffffffffffff0483118215151615611e5657611e55611f4f565b5b828202905092915050565b6000611e6c82611ed3565b9150611e7783611ed3565b925082821015611e8a57611e89611f4f565b5b828203905092915050565b6000611ea082611eb3565b9050919050565b60008115159050919050565b600073ffffffffffffffffffffffffffffffffffffffff82169050919050565b6000819050919050565b600060ff82169050919050565b60005b83811015611f08578082015181840152602081019050611eed565b83811115611f17576000848401525b50505050565b60006002820490506001821680611f3557607f821691505b60208210811415611f4957611f48611fad565b5b50919050565b7f4e487b7100000000000000000000000000000000000000000000000000000000600052601160045260246000fd5b7f4e487b7100000000000000000000000000000000000000000000000000000000600052601260045260246000fd5b7f4e487b7100000000000000000000000000000000000000000000000000000000600052602260045260246000fd5b6000601f19601f8301169050919050565b611ff681611e95565b811461200157600080fd5b50565b61200d81611ed3565b811461201857600080fd5b5056fea2646970667358221220d85d20705f17dd760d11f0848dc8149873800d4c746816939419c37ee352627f64736f6c63430008000033",
  "devdoc": {
    "kind": "dev",
    "methods": {
      "allowance(address,address)": {
        "details": "See {IERC20-allowance}."
      },
      "approve(address,uint256)": {
        "details": "See {IERC20-approve}. Requirements: - `spender` cannot be the zero address."
      },
      "balanceOf(address)": {
        "details": "See {IERC20-balanceOf}."
      },
      "decimals()": {
        "details": "Returns the number of decimals used to get its user representation. For example, if `decimals` equals `2`, a balance of `505` tokens should be displayed to a user as `5,05` (`505 / 10 ** 2`). Tokens usually opt for a value of 18, imitating the relationship between Ether and Wei. This is the value {ERC20} uses, unless this function is overridden; NOTE: This information is only used for _display_ purposes: it in no way affects any of the arithmetic of the contract, including {IERC20-balanceOf} and {IERC20-transfer}."
      },
      "decreaseAllowance(address,uint256)": {
        "details": "Atomically decreases the allowance granted to `spender` by the caller. This is an alternative to {approve} that can be used as a mitigation for problems described in {IERC20-approve}. Emits an {Approval} event indicating the updated allowance. Requirements: - `spender` cannot be the zero address. - `spender` must have allowance for the caller of at least `subtractedValue`."
      },
      "increaseAllowance(address,uint256)": {
        "details": "Atomically increases the allowance granted to `spender` by the caller. This is an alternative to {approve} that can be used as a mitigation for problems described in {IERC20-approve}. Emits an {Approval} event indicating the updated allowance. Requirements: - `spender` cannot be the zero address."
      },
      "name()": {
        "details": "Returns the name of the token."
      },
      "symbol()": {
        "details": "Returns the symbol of the token, usually a shorter version of the name."
      },
      "totalSupply()": {
        "details": "See {IERC20-totalSupply}."
      },
      "transfer(address,uint256)": {
        "details": "See {IERC20-transfer}. Requirements: - `recipient` cannot be the zero address. - the caller must have a balance of at least `amount`."
      },
      "transferFrom(address,address,uint256)": {
        "details": "See {IERC20-transferFrom}. Emits an {Approval} event indicating the updated allowance. This is not required by the EIP. See the note at the beginning of {ERC20}. Requirements: - `sender` and `recipient` cannot be the zero address. - `sender` must have a balance of at least `amount`. - the caller must have allowance for ``sender``'s tokens of at least `amount`."
      }
    },
    "version": 1
  },
  "userdoc": {
    "kind": "user",
    "methods": {},
    "version": 1
  },
  "storageLayout": {
    "storage": [
      {
        "astId": 15,
        "contract": "contracts/stubs/RocketTokenRETH.sol:RocketTokenRETH",
        "label": "_balances",
        "offset": 0,
        "slot": "0",
        "type": "t_mapping(t_address,t_uint256)"
      },
      {
        "astId": 21,
        "contract": "contracts/stubs/RocketTokenRETH.sol:RocketTokenRETH",
        "label": "_allowances",
        "offset": 0,
        "slot": "1",
        "type": "t_mapping(t_address,t_mapping(t_address,t_uint256))"
      },
      {
        "astId": 23,
        "contract": "contracts/stubs/RocketTokenRETH.sol:RocketTokenRETH",
        "label": "_totalSupply",
        "offset": 0,
        "slot": "2",
        "type": "t_uint256"
      },
      {
        "astId": 25,
        "contract": "contracts/stubs/RocketTokenRETH.sol:RocketTokenRETH",
        "label": "_name",
        "offset": 0,
        "slot": "3",
        "type": "t_string_storage"
      },
      {
        "astId": 27,
        "contract": "contracts/stubs/RocketTokenRETH.sol:RocketTokenRETH",
        "label": "_symbol",
        "offset": 0,
        "slot": "4",
        "type": "t_string_storage"
      },
      {
        "astId": 3139,
        "contract": "contracts/stubs/RocketTokenRETH.sol:RocketTokenRETH",
        "label": "owner",
        "offset": 0,
        "slot": "5",
        "type": "t_address"
      },
      {
        "astId": 3142,
        "contract": "contracts/stubs/RocketTokenRETH.sol:RocketTokenRETH",
        "label": "collateral",
        "offset": 0,
        "slot": "6",
        "type": "t_uint256"
      }
    ],
    "types": {
      "t_address": {
        "encoding": "inplace",
        "label": "address",
        "numberOfBytes": "20"
      },
      "t_mapping(t_address,t_mapping(t_address,t_uint256))": {
        "encoding": "mapping",
        "key": "t_address",
        "label": "mapping(address => mapping(address => uint256))",
        "numberOfBytes": "32",
        "value": "t_mapping(t_address,t_uint256)"
      },
      "t_mapping(t_address,t_uint256)": {
        "encoding": "mapping",
        "key": "t_address",
        "label": "mapping(address => uint256)",
        "numberOfBytes": "32",
        "value": "t_uint256"
      },
      "t_string_storage": {
        "encoding": "bytes",
        "label": "string",
        "numberOfBytes": "32"
      },
      "t_uint256": {
        "encoding": "inplace",
        "label": "uint256",
        "numberOfBytes": "32"
      }
    }
  }
}