{
  "address": "0xdc536Cf8eAb375733c0E68815DE3D81344f2F0dd",
  "abi": [
    {
      "inputs": [],
      "stateMutability": "nonpayable",
      "type": "constructor"
    },
    {
      "inputs": [
        {
          "internalType": "uint256",
          "name": "reth_amount",
          "type": "uint256"
        },
        {
          "internalType": "address",
          "name": "staker",
          "type": "address"
        }
      ],
      "name": "closeTransfer",
      "outputs": [],
      "stateMutability": "nonpayable",
      "type": "function"
    },
    {
      "inputs": [
        {
          "internalType": "uint256",
          "name": "reth_amount",
          "type": "uint256"
        },
        {
          "internalType": "address",
          "name": "staker",
          "type": "address"
        }
      ],
      "name": "startTransfer",
      "outputs": [],
      "stateMutability": "nonpayable",
      "type": "function"
    }
  ],
  "transactionHash": "0x2bc0ada4a7ca496f63d4781d33113b4c765a920c11682a878507bdeb0811d4d4",
  "args": [],
  "solcInputHash": "ec58965cceca156508b869cc057c3efd",
  "bytecode": "0x608060405234801561001057600080fd5b50610181806100206000396000f3fe608060405234801561001057600080fd5b50600436106100365760003560e01c806345ca631f1461003b578063b01f0a6b14610057575b600080fd5b610055600480360381019061005091906100a5565b610073565b005b610071600480360381019061006c91906100a5565b610077565b005b5050565b5050565b60008135905061008a8161011d565b92915050565b60008135905061009f81610134565b92915050565b600080604083850312156100b857600080fd5b60006100c685828601610090565b92505060206100d78582860161007b565b9150509250929050565b60006100ec826100f3565b9050919050565b600073ffffffffffffffffffffffffffffffffffffffff82169050919050565b6000819050919050565b610126816100e1565b811461013157600080fd5b50565b61013d81610113565b811461014857600080fd5b5056fea2646970667358221220b7fd2f84f2a0fba77326ec8f491db3c3bd6aa2ee10f87ddb2722344381c984d164736f6c63430008000033",
  "devdoc": {
    "kind": "dev",
    "methods": {},
    "version": 1
  },
  "userdoc": {
    "kind": "user",
    "methods": {},
    "version": 1
  },
  "storageLayout": {
    "storage": [],
    "types": null
  }
}