{
  "address": "0x9fE46736679d2D9a65F0992F2272dE9f3c7fa6e0",
  "abi": [
    {
      "inputs": [
        {
          "internalType": "address",
          "name": "_rocket_token_reth_address",
          "type": "address"
        },
        {
          "internalType": "address",
          "name": "_rocket_storage_address",
          "type": "address"
        }
      ],
      "stateMutability": "nonpayable",
      "type": "constructor"
    },
    {
      "inputs": [],
      "name": "deposit",
      "outputs": [],
      "stateMutability": "payable",
      "type": "function"
    }
  ],
  "transactionHash": "0x380cf330a117242c7ff9b8c1072af84c64b04410e7ea1162d3ea2b32c7970a19",
  "args": [
    "0xe7f1725E7734CE288F8367e1Bb143E90bb3F0512",
    "0x5FbDB2315678afecb367f032d93F642f64180aa3"
  ],
  "solcInputHash": "161771ddf806a627c266ce82b9a7ea9a",
  "bytecode": "0x608060405234801561001057600080fd5b50604051610479380380610479833981810160405281019061003291906100cf565b816000806101000a81548173ffffffffffffffffffffffffffffffffffffffff021916908373ffffffffffffffffffffffffffffffffffffffff16021790555080600160006101000a81548173ffffffffffffffffffffffffffffffffffffffff021916908373ffffffffffffffffffffffffffffffffffffffff1602179055505050610154565b6000815190506100c98161013d565b92915050565b600080604083850312156100e257600080fd5b60006100f0858286016100ba565b9250506020610101858286016100ba565b9150509250929050565b60006101168261011d565b9050919050565b600073ffffffffffffffffffffffffffffffffffffffff82169050919050565b6101468161010b565b811461015157600080fd5b50565b610316806101636000396000f3fe60806040526004361061001e5760003560e01c8063d0e30db014610023575b600080fd5b61002b61002d565b005b600160009054906101000a900473ffffffffffffffffffffffffffffffffffffffff1673ffffffffffffffffffffffffffffffffffffffff1663e2a4853a3360405160200161007c91906101f4565b60405160208183030381529060405280519060200120436040518363ffffffff1660e01b81526004016100b0929190610235565b600060405180830381600087803b1580156100ca57600080fd5b505af11580156100de573d6000803e3d6000fd5b5050505060008054906101000a900473ffffffffffffffffffffffffffffffffffffffff1673ffffffffffffffffffffffffffffffffffffffff16636a62784234336040518363ffffffff1660e01b815260040161013c919061021a565b6000604051808303818588803b15801561015557600080fd5b505af1158015610169573d6000803e3d6000fd5b5050505050565b61017981610269565b82525050565b61019061018b82610269565b6102af565b82525050565b61019f8161027b565b82525050565b60006101b260128361025e565b91507f757365722e6465706f7369742e626c6f636b00000000000000000000000000006000830152601282019050919050565b6101ee816102a5565b82525050565b60006101ff826101a5565b915061020b828461017f565b60148201915081905092915050565b600060208201905061022f6000830184610170565b92915050565b600060408201905061024a6000830185610196565b61025760208301846101e5565b9392505050565b600081905092915050565b600061027482610285565b9050919050565b6000819050919050565b600073ffffffffffffffffffffffffffffffffffffffff82169050919050565b6000819050919050565b60006102ba826102c1565b9050919050565b60006102cc826102d3565b9050919050565b60008160601b905091905056fea2646970667358221220bdd6f9f3c0eae9376e8aa9976e4ba1c680f6fd1da68bebc981c43c7d38aea06864736f6c63430008000033",
  "devdoc": {
    "kind": "dev",
    "methods": {},
    "version": 1
  },
  "userdoc": {
    "kind": "user",
    "methods": {},
    "version": 1
  },
  "storageLayout": {
    "storage": [
      {
        "astId": 2563,
        "contract": "contracts/stubs/RocketDepositPool.sol:RocketDepositPool",
        "label": "rocket_token_reth_address",
        "offset": 0,
        "slot": "0",
        "type": "t_address"
      },
      {
        "astId": 2565,
        "contract": "contracts/stubs/RocketDepositPool.sol:RocketDepositPool",
        "label": "rocket_storage_address",
        "offset": 0,
        "slot": "1",
        "type": "t_address"
      }
    ],
    "types": {
      "t_address": {
        "encoding": "inplace",
        "label": "address",
        "numberOfBytes": "20"
      }
    }
  }
}