{
  "address": "0x5FbDB2315678afecb367f032d93F642f64180aa3",
  "abi": [
    {
      "inputs": [],
      "stateMutability": "nonpayable",
      "type": "constructor"
    },
    {
      "inputs": [
        {
          "internalType": "bytes32",
          "name": "_key",
          "type": "bytes32"
        }
      ],
      "name": "getAddress",
      "outputs": [
        {
          "internalType": "address",
          "name": "",
          "type": "address"
        }
      ],
      "stateMutability": "view",
      "type": "function"
    },
    {
      "inputs": [
        {
          "internalType": "bytes32",
          "name": "_key",
          "type": "bytes32"
        }
      ],
      "name": "getUint",
      "outputs": [
        {
          "internalType": "uint256",
          "name": "r",
          "type": "uint256"
        }
      ],
      "stateMutability": "view",
      "type": "function"
    },
    {
      "inputs": [
        {
          "internalType": "bytes32",
          "name": "_key",
          "type": "bytes32"
        },
        {
          "internalType": "address",
          "name": "_value",
          "type": "address"
        }
      ],
      "name": "setAddress",
      "outputs": [],
      "stateMutability": "nonpayable",
      "type": "function"
    },
    {
      "inputs": [
        {
          "internalType": "bytes32",
          "name": "_key",
          "type": "bytes32"
        },
        {
          "internalType": "uint256",
          "name": "_value",
          "type": "uint256"
        }
      ],
      "name": "setUint",
      "outputs": [],
      "stateMutability": "nonpayable",
      "type": "function"
    }
  ],
  "transactionHash": "0xda9f2ba284404be114ec21d6e428985ba81fc7944a13ff71f9e45a2e944fe5bb",
  "args": [],
  "solcInputHash": "d13edce25252946d15b8d0701630343f",
  "bytecode": "0x608060405234801561001057600080fd5b50610381806100206000396000f3fe608060405234801561001057600080fd5b506004361061004c5760003560e01c806321f8a72114610051578063bd02d0f514610081578063ca446dd9146100b1578063e2a4853a146100cd575b600080fd5b61006b600480360381019061006691906101cb565b6100e9565b604051610078919061028a565b60405180910390f35b61009b600480360381019061009691906101cb565b610125565b6040516100a891906102a5565b60405180910390f35b6100cb60048036038101906100c691906101f4565b610130565b005b6100e760048036038101906100e29190610230565b610185565b005b600080600083815260200190815260200160002060009054906101000a900473ffffffffffffffffffffffffffffffffffffffff169050919050565b600081549050919050565b8060008084815260200190815260200160002060006101000a81548173ffffffffffffffffffffffffffffffffffffffff021916908373ffffffffffffffffffffffffffffffffffffffff1602179055505050565b8082555050565b60008135905061019b81610306565b92915050565b6000813590506101b08161031d565b92915050565b6000813590506101c581610334565b92915050565b6000602082840312156101dd57600080fd5b60006101eb848285016101a1565b91505092915050565b6000806040838503121561020757600080fd5b6000610215858286016101a1565b92505060206102268582860161018c565b9150509250929050565b6000806040838503121561024357600080fd5b6000610251858286016101a1565b9250506020610262858286016101b6565b9150509250929050565b610275816102c0565b82525050565b610284816102fc565b82525050565b600060208201905061029f600083018461026c565b92915050565b60006020820190506102ba600083018461027b565b92915050565b60006102cb826102dc565b9050919050565b6000819050919050565b600073ffffffffffffffffffffffffffffffffffffffff82169050919050565b6000819050919050565b61030f816102c0565b811461031a57600080fd5b50565b610326816102d2565b811461033157600080fd5b50565b61033d816102fc565b811461034857600080fd5b5056fea26469706673582212209f719da82fe1a75251007843566a44cb0f8fb59c459a954ecf1aebc9ab77137a64736f6c63430008000033",
  "devdoc": {
    "kind": "dev",
    "methods": {},
    "version": 1
  },
  "userdoc": {
    "kind": "user",
    "methods": {},
    "version": 1
  },
  "storageLayout": {
    "storage": [
      {
        "astId": 36,
        "contract": "contracts/stubs/RocketStorage.sol:RocketStorage",
        "label": "addresses",
        "offset": 0,
        "slot": "0",
        "type": "t_mapping(t_bytes32,t_address)"
      }
    ],
    "types": {
      "t_address": {
        "encoding": "inplace",
        "label": "address",
        "numberOfBytes": "20"
      },
      "t_bytes32": {
        "encoding": "inplace",
        "label": "bytes32",
        "numberOfBytes": "32"
      },
      "t_mapping(t_bytes32,t_address)": {
        "encoding": "mapping",
        "key": "t_bytes32",
        "label": "mapping(bytes32 => address)",
        "numberOfBytes": "32",
        "value": "t_address"
      }
    }
  }
}