{
  "address": "0xe7f1725E7734CE288F8367e1Bb143E90bb3F0512",
  "abi": [
    {
      "inputs": [
        {
          "internalType": "address",
          "name": "_rocket_storage_address",
          "type": "address"
        }
      ],
      "stateMutability": "nonpayable",
      "type": "constructor"
    },
    {
      "anonymous": false,
      "inputs": [
        {
          "indexed": true,
          "internalType": "address",
          "name": "owner",
          "type": "address"
        },
        {
          "indexed": true,
          "internalType": "address",
          "name": "spender",
          "type": "address"
        },
        {
          "indexed": false,
          "internalType": "uint256",
          "name": "value",
          "type": "uint256"
        }
      ],
      "name": "Approval",
      "type": "event"
    },
    {
      "anonymous": false,
      "inputs": [
        {
          "indexed": true,
          "internalType": "address",
          "name": "from",
          "type": "address"
        },
        {
          "indexed": true,
          "internalType": "address",
          "name": "to",
          "type": "address"
        },
        {
          "indexed": false,
          "internalType": "uint256",
          "name": "value",
          "type": "uint256"
        }
      ],
      "name": "Transfer",
      "type": "event"
    },
    {
      "inputs": [
        {
          "internalType": "address",
          "name": "owner",
          "type": "address"
        },
        {
          "internalType": "address",
          "name": "spender",
          "type": "address"
        }
      ],
      "name": "allowance",
      "outputs": [
        {
          "internalType": "uint256",
          "name": "",
          "type": "uint256"
        }
      ],
      "stateMutability": "view",
      "type": "function"
    },
    {
      "inputs": [
        {
          "internalType": "address",
          "name": "spender",
          "type": "address"
        },
        {
          "internalType": "uint256",
          "name": "amount",
          "type": "uint256"
        }
      ],
      "name": "approve",
      "outputs": [
        {
          "internalType": "bool",
          "name": "",
          "type": "bool"
        }
      ],
      "stateMutability": "nonpayable",
      "type": "function"
    },
    {
      "inputs": [
        {
          "internalType": "address",
          "name": "account",
          "type": "address"
        }
      ],
      "name": "balanceOf",
      "outputs": [
        {
          "internalType": "uint256",
          "name": "",
          "type": "uint256"
        }
      ],
      "stateMutability": "view",
      "type": "function"
    },
    {
      "inputs": [
        {
          "internalType": "uint256",
          "name": "_rethAmount",
          "type": "uint256"
        }
      ],
      "name": "burn",
      "outputs": [
        {
          "internalType": "uint256",
          "name": "",
          "type": "uint256"
        }
      ],
      "stateMutability": "nonpayable",
      "type": "function"
    },
    {
      "inputs": [],
      "name": "decimals",
      "outputs": [
        {
          "internalType": "uint8",
          "name": "",
          "type": "uint8"
        }
      ],
      "stateMutability": "view",
      "type": "function"
    },
    {
      "inputs": [
        {
          "internalType": "address",
          "name": "spender",
          "type": "address"
        },
        {
          "internalType": "uint256",
          "name": "subtractedValue",
          "type": "uint256"
        }
      ],
      "name": "decreaseAllowance",
      "outputs": [
        {
          "internalType": "bool",
          "name": "",
          "type": "bool"
        }
      ],
      "stateMutability": "nonpayable",
      "type": "function"
    },
    {
      "inputs": [],
      "name": "distributeRewards",
      "outputs": [],
      "stateMutability": "payable",
      "type": "function"
    },
    {
      "inputs": [
        {
          "internalType": "uint256",
          "name": "amount",
          "type": "uint256"
        }
      ],
      "name": "drain",
      "outputs": [],
      "stateMutability": "nonpayable",
      "type": "function"
    },
    {
      "inputs": [
        {
          "internalType": "uint256",
          "name": "_rethAmount",
          "type": "uint256"
        }
      ],
      "name": "getEthValue",
      "outputs": [
        {
          "internalType": "uint256",
          "name": "",
          "type": "uint256"
        }
      ],
      "stateMutability": "view",
      "type": "function"
    },
    {
      "inputs": [
        {
          "internalType": "uint256",
          "name": "_ethAmount",
          "type": "uint256"
        }
      ],
      "name": "getRethValue",
      "outputs": [
        {
          "internalType": "uint256",
          "name": "",
          "type": "uint256"
        }
      ],
      "stateMutability": "view",
      "type": "function"
    },
    {
      "inputs": [],
      "name": "getTotalCollateral",
      "outputs": [
        {
          "internalType": "uint256",
          "name": "",
          "type": "uint256"
        }
      ],
      "stateMutability": "view",
      "type": "function"
    },
    {
      "inputs": [
        {
          "internalType": "address",
          "name": "spender",
          "type": "address"
        },
        {
          "internalType": "uint256",
          "name": "addedValue",
          "type": "uint256"
        }
      ],
      "name": "increaseAllowance",
      "outputs": [
        {
          "internalType": "bool",
          "name": "",
          "type": "bool"
        }
      ],
      "stateMutability": "nonpayable",
      "type": "function"
    },
    {
      "inputs": [
        {
          "internalType": "address",
          "name": "_to",
          "type": "address"
        }
      ],
      "name": "mint",
      "outputs": [],
      "stateMutability": "payable",
      "type": "function"
    },
    {
      "inputs": [],
      "name": "name",
      "outputs": [
        {
          "internalType": "string",
          "name": "",
          "type": "string"
        }
      ],
      "stateMutability": "view",
      "type": "function"
    },
    {
      "inputs": [],
      "name": "symbol",
      "outputs": [
        {
          "internalType": "string",
          "name": "",
          "type": "string"
        }
      ],
      "stateMutability": "view",
      "type": "function"
    },
    {
      "inputs": [],
      "name": "totalSupply",
      "outputs": [
        {
          "internalType": "uint256",
          "name": "",
          "type": "uint256"
        }
      ],
      "stateMutability": "view",
      "type": "function"
    },
    {
      "inputs": [
        {
          "internalType": "address",
          "name": "recipient",
          "type": "address"
        },
        {
          "internalType": "uint256",
          "name": "amount",
          "type": "uint256"
        }
      ],
      "name": "transfer",
      "outputs": [
        {
          "internalType": "bool",
          "name": "",
          "type": "bool"
        }
      ],
      "stateMutability": "nonpayable",
      "type": "function"
    },
    {
      "inputs": [
        {
          "internalType": "address",
          "name": "sender",
          "type": "address"
        },
        {
          "internalType": "address",
          "name": "recipient",
          "type": "address"
        },
        {
          "internalType": "uint256",
          "name": "amount",
          "type": "uint256"
        }
      ],
      "name": "transferFrom",
      "outputs": [
        {
          "internalType": "bool",
          "name": "",
          "type": "bool"
        }
      ],
      "stateMutability": "nonpayable",
      "type": "function"
    },
    {
      "inputs": [
        {
          "internalType": "uint256",
          "name": "_collateral",
          "type": "uint256"
        }
      ],
      "name": "updateTotalCollateral",
      "outputs": [],
      "stateMutability": "nonpayable",
      "type": "function"
    }
  ],
  "transactionHash": "0x013ec41c71074572efc231d54e4acad1b8b063d7a82281add83a4a53c1ebf5bc",
  "args": [
    "0x5FbDB2315678afecb367f032d93F642f64180aa3"
  ],
  "solcInputHash": "161771ddf806a627c266ce82b9a7ea9a",
  "bytecode": "0x608060405268056bc75e2d631000006007553480156200001e57600080fd5b506040516200262c3803806200262c833981810160405281019062000044919062000234565b6040518060400160405280600f81526020017f526f636b6574546f6b656e5245544800000000000000000000000000000000008152506040518060400160405280600481526020017f72455448000000000000000000000000000000000000000000000000000000008152508160039080519060200190620000c89291906200016d565b508060049080519060200190620000e19291906200016d565b50505033600560006101000a81548173ffffffffffffffffffffffffffffffffffffffff021916908373ffffffffffffffffffffffffffffffffffffffff16021790555080600660006101000a81548173ffffffffffffffffffffffffffffffffffffffff021916908373ffffffffffffffffffffffffffffffffffffffff1602179055505062000313565b8280546200017b9062000294565b90600052602060002090601f0160209004810192826200019f5760008555620001eb565b82601f10620001ba57805160ff1916838001178555620001eb565b82800160010185558215620001eb579182015b82811115620001ea578251825591602001919060010190620001cd565b5b509050620001fa9190620001fe565b5090565b5b8082111562000219576000816000905550600101620001ff565b5090565b6000815190506200022e81620002f9565b92915050565b6000602082840312156200024757600080fd5b600062000257848285016200021d565b91505092915050565b60006200026d8262000274565b9050919050565b600073ffffffffffffffffffffffffffffffffffffffff82169050919050565b60006002820490506001821680620002ad57607f821691505b60208210811415620002c457620002c3620002ca565b5b50919050565b7f4e487b7100000000000000000000000000000000000000000000000000000000600052602260045260246000fd5b620003048162000260565b81146200031057600080fd5b50565b61230980620003236000396000f3fe6080604052600436106101145760003560e01c80636e92130d116100a0578063a457c2d711610064578063a457c2d7146103bf578063a9059cbb146103fc578063d6eb591014610439578063dd62ed3e14610464578063f6b19c74146104a157610114565b80636e92130d146102e75780636f4a2cd01461031057806370a082311461031a5780638b32fa231461035757806395d89b411461039457610114565b8063313ce567116100e7578063313ce567146101e9578063395093511461021457806342966c68146102515780634346f03e1461028e5780636a627842146102cb57610114565b806306fdde0314610119578063095ea7b31461014457806318160ddd1461018157806323b872dd146101ac575b600080fd5b34801561012557600080fd5b5061012e6104ca565b60405161013b9190611dbe565b60405180910390f35b34801561015057600080fd5b5061016b6004803603810190610166919061170c565b61055c565b6040516101789190611d88565b60405180910390f35b34801561018d57600080fd5b5061019661057a565b6040516101a39190611fa0565b60405180910390f35b3480156101b857600080fd5b506101d360048036038101906101ce91906116bd565b610584565b6040516101e09190611d88565b60405180910390f35b3480156101f557600080fd5b506101fe61067c565b60405161020b9190611fbb565b60405180910390f35b34801561022057600080fd5b5061023b6004803603810190610236919061170c565b610685565b6040516102489190611d88565b60405180910390f35b34801561025d57600080fd5b5061027860048036038101906102739190611748565b610731565b6040516102859190611fa0565b60405180910390f35b34801561029a57600080fd5b506102b560048036038101906102b09190611748565b610954565b6040516102c29190611fa0565b60405180910390f35b6102e560048036038101906102e09190611658565b6109a1565b005b3480156102f357600080fd5b5061030e60048036038101906103099190611748565b610a09565b005b610318610aa3565b005b34801561032657600080fd5b50610341600480360381019061033c9190611658565b610aa5565b60405161034e9190611fa0565b60405180910390f35b34801561036357600080fd5b5061037e60048036038101906103799190611748565b610aed565b60405161038b9190611fa0565b60405180910390f35b3480156103a057600080fd5b506103a9610b3b565b6040516103b69190611dbe565b60405180910390f35b3480156103cb57600080fd5b506103e660048036038101906103e1919061170c565b610bcd565b6040516103f39190611d88565b60405180910390f35b34801561040857600080fd5b50610423600480360381019061041e919061170c565b610cb8565b6040516104309190611d88565b60405180910390f35b34801561044557600080fd5b5061044e610cd6565b60405161045b9190611fa0565b60405180910390f35b34801561047057600080fd5b5061048b60048036038101906104869190611681565b610ce0565b6040516104989190611fa0565b60405180910390f35b3480156104ad57600080fd5b506104c860048036038101906104c39190611748565b610d67565b005b6060600380546104d9906121a4565b80601f0160208091040260200160405190810160405280929190818152602001828054610505906121a4565b80156105525780601f1061052757610100808354040283529160200191610552565b820191906000526020600020905b81548152906001019060200180831161053557829003601f168201915b5050505050905090565b6000610570610569610e42565b8484610e4a565b6001905092915050565b6000600254905090565b6000610591848484611015565b6000600160008673ffffffffffffffffffffffffffffffffffffffff1673ffffffffffffffffffffffffffffffffffffffff16815260200190815260200160002060006105dc610e42565b73ffffffffffffffffffffffffffffffffffffffff1673ffffffffffffffffffffffffffffffffffffffff1681526020019081526020016000205490508281101561065c576040517f08c379a000000000000000000000000000000000000000000000000000000000815260040161065390611e60565b60405180910390fd5b61067085610668610e42565b858403610e4a565b60019150509392505050565b60006012905090565b6000610727610692610e42565b8484600160006106a0610e42565b73ffffffffffffffffffffffffffffffffffffffff1673ffffffffffffffffffffffffffffffffffffffff16815260200190815260200160002060008873ffffffffffffffffffffffffffffffffffffffff1673ffffffffffffffffffffffffffffffffffffffff168152602001908152602001600020546107229190611ffd565b610e4a565b6001905092915050565b6000808211610775576040517f08c379a000000000000000000000000000000000000000000000000000000000815260040161076c90611f20565b60405180910390fd5b8161077f33610aa5565b10156107c0576040517f08c379a00000000000000000000000000000000000000000000000000000000081526004016107b790611ea0565b60405180910390fd5b60006108a7600660009054906101000a900473ffffffffffffffffffffffffffffffffffffffff1673ffffffffffffffffffffffffffffffffffffffff1663bd02d0f5336040516020016108149190611d62565b604051602081830303815290604052805190602001206040518263ffffffff1660e01b81526004016108469190611da3565b602060405180830381600087803b15801561086057600080fd5b505af1158015610874573d6000803e3d6000fd5b505050506040513d601f19601f820116820180604052508101906108989190611771565b4361129690919063ffffffff16565b9050600681116108ec576040517f08c379a00000000000000000000000000000000000000000000000000000000081526004016108e390611f40565b60405180910390fd5b60006108f784610aed565b905061090333856112ac565b3373ffffffffffffffffffffffffffffffffffffffff166108fc829081150290604051600060405180830381858888f19350505050158015610949573d6000803e3d6000fd5b508092505050919050565b60008061095f61057a565b141561096d5781905061099c565b6109994761098b8461097d61057a565b61148390919063ffffffff16565b61149990919063ffffffff16565b90505b919050565b6000806109ac61057a565b14156109ba573490506109fb565b6109f86109d0344761129690919063ffffffff16565b6109ea346109dc61057a565b61148390919063ffffffff16565b61149990919063ffffffff16565b90505b610a0582826114af565b5050565b600560009054906101000a900473ffffffffffffffffffffffffffffffffffffffff1673ffffffffffffffffffffffffffffffffffffffff163373ffffffffffffffffffffffffffffffffffffffff1614610a99576040517f08c379a0000000000000000000000000000000000000000000000000000000008152600401610a9090611e80565b60405180910390fd5b8060078190555050565b565b60008060008373ffffffffffffffffffffffffffffffffffffffff1673ffffffffffffffffffffffffffffffffffffffff168152602001908152602001600020549050919050565b600080610af861057a565b1415610b075760009050610b36565b610b33610b1261057a565b610b25844761148390919063ffffffff16565b61149990919063ffffffff16565b90505b919050565b606060048054610b4a906121a4565b80601f0160208091040260200160405190810160405280929190818152602001828054610b76906121a4565b8015610bc35780601f10610b9857610100808354040283529160200191610bc3565b820191906000526020600020905b815481529060010190602001808311610ba657829003601f168201915b5050505050905090565b60008060016000610bdc610e42565b73ffffffffffffffffffffffffffffffffffffffff1673ffffffffffffffffffffffffffffffffffffffff16815260200190815260200160002060008573ffffffffffffffffffffffffffffffffffffffff1673ffffffffffffffffffffffffffffffffffffffff16815260200190815260200160002054905082811015610c99576040517f08c379a0000000000000000000000000000000000000000000000000000000008152600401610c9090611f60565b60405180910390fd5b610cad610ca4610e42565b85858403610e4a565b600191505092915050565b6000610ccc610cc5610e42565b8484611015565b6001905092915050565b6000600754905090565b6000600160008473ffffffffffffffffffffffffffffffffffffffff1673ffffffffffffffffffffffffffffffffffffffff16815260200190815260200160002060008373ffffffffffffffffffffffffffffffffffffffff1673ffffffffffffffffffffffffffffffffffffffff16815260200190815260200160002054905092915050565b600560009054906101000a900473ffffffffffffffffffffffffffffffffffffffff1673ffffffffffffffffffffffffffffffffffffffff163373ffffffffffffffffffffffffffffffffffffffff1614610df7576040517f08c379a0000000000000000000000000000000000000000000000000000000008152600401610dee90611e80565b60405180910390fd5b600073ffffffffffffffffffffffffffffffffffffffff166108fc829081150290604051600060405180830381858888f19350505050158015610e3e573d6000803e3d6000fd5b5050565b600033905090565b600073ffffffffffffffffffffffffffffffffffffffff168373ffffffffffffffffffffffffffffffffffffffff161415610eba576040517f08c379a0000000000000000000000000000000000000000000000000000000008152600401610eb190611f00565b60405180910390fd5b600073ffffffffffffffffffffffffffffffffffffffff168273ffffffffffffffffffffffffffffffffffffffff161415610f2a576040517f08c379a0000000000000000000000000000000000000000000000000000000008152600401610f2190611e20565b60405180910390fd5b80600160008573ffffffffffffffffffffffffffffffffffffffff1673ffffffffffffffffffffffffffffffffffffffff16815260200190815260200160002060008473ffffffffffffffffffffffffffffffffffffffff1673ffffffffffffffffffffffffffffffffffffffff168152602001908152602001600020819055508173ffffffffffffffffffffffffffffffffffffffff168373ffffffffffffffffffffffffffffffffffffffff167f8c5be1e5ebec7d5bd14f71427d1e84f3dd0314c0f7b2291e5b200ac8c7c3b925836040516110089190611fa0565b60405180910390a3505050565b600073ffffffffffffffffffffffffffffffffffffffff168373ffffffffffffffffffffffffffffffffffffffff161415611085576040517f08c379a000000000000000000000000000000000000000000000000000000000815260040161107c90611ee0565b60405180910390fd5b600073ffffffffffffffffffffffffffffffffffffffff168273ffffffffffffffffffffffffffffffffffffffff1614156110f5576040517f08c379a00000000000000000000000000000000000000000000000000000000081526004016110ec90611de0565b60405180910390fd5b61110083838361160f565b60008060008573ffffffffffffffffffffffffffffffffffffffff1673ffffffffffffffffffffffffffffffffffffffff16815260200190815260200160002054905081811015611186576040517f08c379a000000000000000000000000000000000000000000000000000000000815260040161117d90611e40565b60405180910390fd5b8181036000808673ffffffffffffffffffffffffffffffffffffffff1673ffffffffffffffffffffffffffffffffffffffff16815260200190815260200160002081905550816000808573ffffffffffffffffffffffffffffffffffffffff1673ffffffffffffffffffffffffffffffffffffffff16815260200190815260200160002060008282546112199190611ffd565b925050819055508273ffffffffffffffffffffffffffffffffffffffff168473ffffffffffffffffffffffffffffffffffffffff167fddf252ad1be2c89b69c2b068fc378daa952ba7f163c4a11628f55a4df523b3ef8460405161127d9190611fa0565b60405180910390a3611290848484611614565b50505050565b600081836112a491906120de565b905092915050565b600073ffffffffffffffffffffffffffffffffffffffff168273ffffffffffffffffffffffffffffffffffffffff16141561131c576040517f08c379a000000000000000000000000000000000000000000000000000000000815260040161131390611ec0565b60405180910390fd5b6113288260008361160f565b60008060008473ffffffffffffffffffffffffffffffffffffffff1673ffffffffffffffffffffffffffffffffffffffff168152602001908152602001600020549050818110156113ae576040517f08c379a00000000000000000000000000000000000000000000000000000000081526004016113a590611e00565b60405180910390fd5b8181036000808573ffffffffffffffffffffffffffffffffffffffff1673ffffffffffffffffffffffffffffffffffffffff16815260200190815260200160002081905550816002600082825461140591906120de565b92505081905550600073ffffffffffffffffffffffffffffffffffffffff168373ffffffffffffffffffffffffffffffffffffffff167fddf252ad1be2c89b69c2b068fc378daa952ba7f163c4a11628f55a4df523b3ef8460405161146a9190611fa0565b60405180910390a361147e83600084611614565b505050565b600081836114919190612084565b905092915050565b600081836114a79190612053565b905092915050565b600073ffffffffffffffffffffffffffffffffffffffff168273ffffffffffffffffffffffffffffffffffffffff16141561151f576040517f08c379a000000000000000000000000000000000000000000000000000000000815260040161151690611f80565b60405180910390fd5b61152b6000838361160f565b806002600082825461153d9190611ffd565b92505081905550806000808473ffffffffffffffffffffffffffffffffffffffff1673ffffffffffffffffffffffffffffffffffffffff16815260200190815260200160002060008282546115929190611ffd565b925050819055508173ffffffffffffffffffffffffffffffffffffffff16600073ffffffffffffffffffffffffffffffffffffffff167fddf252ad1be2c89b69c2b068fc378daa952ba7f163c4a11628f55a4df523b3ef836040516115f79190611fa0565b60405180910390a361160b60008383611614565b5050565b505050565b505050565b600081359050611628816122a5565b92915050565b60008135905061163d816122bc565b92915050565b600081519050611652816122bc565b92915050565b60006020828403121561166a57600080fd5b600061167884828501611619565b91505092915050565b6000806040838503121561169457600080fd5b60006116a285828601611619565b92505060206116b385828601611619565b9150509250929050565b6000806000606084860312156116d257600080fd5b60006116e086828701611619565b93505060206116f186828701611619565b92505060406117028682870161162e565b9150509250925092565b6000806040838503121561171f57600080fd5b600061172d85828601611619565b925050602061173e8582860161162e565b9150509250929050565b60006020828403121561175a57600080fd5b60006117688482850161162e565b91505092915050565b60006020828403121561178357600080fd5b600061179184828501611643565b91505092915050565b6117ab6117a682612112565b6121d6565b82525050565b6117ba81612124565b82525050565b6117c981612130565b82525050565b60006117da82611fd6565b6117e48185611fe1565b93506117f4818560208601612171565b6117fd81612287565b840191505092915050565b6000611815602383611fe1565b91507f45524332303a207472616e7366657220746f20746865207a65726f206164647260008301527f65737300000000000000000000000000000000000000000000000000000000006020830152604082019050919050565b600061187b601283611ff2565b91507f757365722e6465706f7369742e626c6f636b00000000000000000000000000006000830152601282019050919050565b60006118bb602283611fe1565b91507f45524332303a206275726e20616d6f756e7420657863656564732062616c616e60008301527f63650000000000000000000000000000000000000000000000000000000000006020830152604082019050919050565b6000611921602283611fe1565b91507f45524332303a20617070726f766520746f20746865207a65726f20616464726560008301527f73730000000000000000000000000000000000000000000000000000000000006020830152604082019050919050565b6000611987602683611fe1565b91507f45524332303a207472616e7366657220616d6f756e742065786365656473206260008301527f616c616e636500000000000000000000000000000000000000000000000000006020830152604082019050919050565b60006119ed602883611fe1565b91507f45524332303a207472616e7366657220616d6f756e742065786365656473206160008301527f6c6c6f77616e63650000000000000000000000000000000000000000000000006020830152604082019050919050565b6000611a53602183611fe1565b91507f596f75206d75737420626520746865206f776e657220746f20646f207468617460008301527f2e000000000000000000000000000000000000000000000000000000000000006020830152604082019050919050565b6000611ab9601983611fe1565b91507f496e73756666696369656e7420724554482062616c616e6365000000000000006000830152602082019050919050565b6000611af9602183611fe1565b91507f45524332303a206275726e2066726f6d20746865207a65726f2061646472657360008301527f73000000000000000000000000000000000000000000000000000000000000006020830152604082019050919050565b6000611b5f602583611fe1565b91507f45524332303a207472616e736665722066726f6d20746865207a65726f20616460008301527f64726573730000000000000000000000000000000000000000000000000000006020830152604082019050919050565b6000611bc5602483611fe1565b91507f45524332303a20617070726f76652066726f6d20746865207a65726f2061646460008301527f72657373000000000000000000000000000000000000000000000000000000006020830152604082019050919050565b6000611c2b601983611fe1565b91507f496e76616c696420746f6b656e206275726e20616d6f756e74000000000000006000830152602082019050919050565b6000611c6b601883611fe1565b91507f3620626c6f636b73206d757374207061737320666972737400000000000000006000830152602082019050919050565b6000611cab602583611fe1565b91507f45524332303a2064656372656173656420616c6c6f77616e63652062656c6f7760008301527f207a65726f0000000000000000000000000000000000000000000000000000006020830152604082019050919050565b6000611d11601f83611fe1565b91507f45524332303a206d696e7420746f20746865207a65726f2061646472657373006000830152602082019050919050565b611d4d8161215a565b82525050565b611d5c81612164565b82525050565b6000611d6d8261186e565b9150611d79828461179a565b60148201915081905092915050565b6000602082019050611d9d60008301846117b1565b92915050565b6000602082019050611db860008301846117c0565b92915050565b60006020820190508181036000830152611dd881846117cf565b905092915050565b60006020820190508181036000830152611df981611808565b9050919050565b60006020820190508181036000830152611e19816118ae565b9050919050565b60006020820190508181036000830152611e3981611914565b9050919050565b60006020820190508181036000830152611e598161197a565b9050919050565b60006020820190508181036000830152611e79816119e0565b9050919050565b60006020820190508181036000830152611e9981611a46565b9050919050565b60006020820190508181036000830152611eb981611aac565b9050919050565b60006020820190508181036000830152611ed981611aec565b9050919050565b60006020820190508181036000830152611ef981611b52565b9050919050565b60006020820190508181036000830152611f1981611bb8565b9050919050565b60006020820190508181036000830152611f3981611c1e565b9050919050565b60006020820190508181036000830152611f5981611c5e565b9050919050565b60006020820190508181036000830152611f7981611c9e565b9050919050565b60006020820190508181036000830152611f9981611d04565b9050919050565b6000602082019050611fb56000830184611d44565b92915050565b6000602082019050611fd06000830184611d53565b92915050565b600081519050919050565b600082825260208201905092915050565b600081905092915050565b60006120088261215a565b91506120138361215a565b9250827fffffffffffffffffffffffffffffffffffffffffffffffffffffffffffffffff03821115612048576120476121fa565b5b828201905092915050565b600061205e8261215a565b91506120698361215a565b92508261207957612078612229565b5b828204905092915050565b600061208f8261215a565b915061209a8361215a565b9250817fffffffffffffffffffffffffffffffffffffffffffffffffffffffffffffffff04831182151516156120d3576120d26121fa565b5b828202905092915050565b60006120e98261215a565b91506120f48361215a565b925082821015612107576121066121fa565b5b828203905092915050565b600061211d8261213a565b9050919050565b60008115159050919050565b6000819050919050565b600073ffffffffffffffffffffffffffffffffffffffff82169050919050565b6000819050919050565b600060ff82169050919050565b60005b8381101561218f578082015181840152602081019050612174565b8381111561219e576000848401525b50505050565b600060028204905060018216806121bc57607f821691505b602082108114156121d0576121cf612258565b5b50919050565b60006121e1826121e8565b9050919050565b60006121f382612298565b9050919050565b7f4e487b7100000000000000000000000000000000000000000000000000000000600052601160045260246000fd5b7f4e487b7100000000000000000000000000000000000000000000000000000000600052601260045260246000fd5b7f4e487b7100000000000000000000000000000000000000000000000000000000600052602260045260246000fd5b6000601f19601f8301169050919050565b60008160601b9050919050565b6122ae81612112565b81146122b957600080fd5b50565b6122c58161215a565b81146122d057600080fd5b5056fea26469706673582212200543a1eb2281277d0bafbcb870088ad0bd86aa155ed50b95e79b38e8c507d92664736f6c63430008000033",
  "devdoc": {
    "kind": "dev",
    "methods": {
      "allowance(address,address)": {
        "details": "See {IERC20-allowance}."
      },
      "approve(address,uint256)": {
        "details": "See {IERC20-approve}. Requirements: - `spender` cannot be the zero address."
      },
      "balanceOf(address)": {
        "details": "See {IERC20-balanceOf}."
      },
      "decimals()": {
        "details": "Returns the number of decimals used to get its user representation. For example, if `decimals` equals `2`, a balance of `505` tokens should be displayed to a user as `5,05` (`505 / 10 ** 2`). Tokens usually opt for a value of 18, imitating the relationship between Ether and Wei. This is the value {ERC20} uses, unless this function is overridden; NOTE: This information is only used for _display_ purposes: it in no way affects any of the arithmetic of the contract, including {IERC20-balanceOf} and {IERC20-transfer}."
      },
      "decreaseAllowance(address,uint256)": {
        "details": "Atomically decreases the allowance granted to `spender` by the caller. This is an alternative to {approve} that can be used as a mitigation for problems described in {IERC20-approve}. Emits an {Approval} event indicating the updated allowance. Requirements: - `spender` cannot be the zero address. - `spender` must have allowance for the caller of at least `subtractedValue`."
      },
      "increaseAllowance(address,uint256)": {
        "details": "Atomically increases the allowance granted to `spender` by the caller. This is an alternative to {approve} that can be used as a mitigation for problems described in {IERC20-approve}. Emits an {Approval} event indicating the updated allowance. Requirements: - `spender` cannot be the zero address."
      },
      "name()": {
        "details": "Returns the name of the token."
      },
      "symbol()": {
        "details": "Returns the symbol of the token, usually a shorter version of the name."
      },
      "totalSupply()": {
        "details": "See {IERC20-totalSupply}."
      },
      "transfer(address,uint256)": {
        "details": "See {IERC20-transfer}. Requirements: - `recipient` cannot be the zero address. - the caller must have a balance of at least `amount`."
      },
      "transferFrom(address,address,uint256)": {
        "details": "See {IERC20-transferFrom}. Emits an {Approval} event indicating the updated allowance. This is not required by the EIP. See the note at the beginning of {ERC20}. Requirements: - `sender` and `recipient` cannot be the zero address. - `sender` must have a balance of at least `amount`. - the caller must have allowance for ``sender``'s tokens of at least `amount`."
      }
    },
    "version": 1
  },
  "userdoc": {
    "kind": "user",
    "methods": {},
    "version": 1
  },
  "storageLayout": {
    "storage": [
      {
        "astId": 15,
        "contract": "contracts/stubs/RocketTokenRETH.sol:RocketTokenRETH",
        "label": "_balances",
        "offset": 0,
        "slot": "0",
        "type": "t_mapping(t_address,t_uint256)"
      },
      {
        "astId": 21,
        "contract": "contracts/stubs/RocketTokenRETH.sol:RocketTokenRETH",
        "label": "_allowances",
        "offset": 0,
        "slot": "1",
        "type": "t_mapping(t_address,t_mapping(t_address,t_uint256))"
      },
      {
        "astId": 23,
        "contract": "contracts/stubs/RocketTokenRETH.sol:RocketTokenRETH",
        "label": "_totalSupply",
        "offset": 0,
        "slot": "2",
        "type": "t_uint256"
      },
      {
        "astId": 25,
        "contract": "contracts/stubs/RocketTokenRETH.sol:RocketTokenRETH",
        "label": "_name",
        "offset": 0,
        "slot": "3",
        "type": "t_string_storage"
      },
      {
        "astId": 27,
        "contract": "contracts/stubs/RocketTokenRETH.sol:RocketTokenRETH",
        "label": "_symbol",
        "offset": 0,
        "slot": "4",
        "type": "t_string_storage"
      },
      {
        "astId": 2781,
        "contract": "contracts/stubs/RocketTokenRETH.sol:RocketTokenRETH",
        "label": "owner",
        "offset": 0,
        "slot": "5",
        "type": "t_address"
      },
      {
        "astId": 2783,
        "contract": "contracts/stubs/RocketTokenRETH.sol:RocketTokenRETH",
        "label": "rocket_storage_address",
        "offset": 0,
        "slot": "6",
        "type": "t_address"
      },
      {
        "astId": 2786,
        "contract": "contracts/stubs/RocketTokenRETH.sol:RocketTokenRETH",
        "label": "collateral",
        "offset": 0,
        "slot": "7",
        "type": "t_uint256"
      }
    ],
    "types": {
      "t_address": {
        "encoding": "inplace",
        "label": "address",
        "numberOfBytes": "20"
      },
      "t_mapping(t_address,t_mapping(t_address,t_uint256))": {
        "encoding": "mapping",
        "key": "t_address",
        "label": "mapping(address => mapping(address => uint256))",
        "numberOfBytes": "32",
        "value": "t_mapping(t_address,t_uint256)"
      },
      "t_mapping(t_address,t_uint256)": {
        "encoding": "mapping",
        "key": "t_address",
        "label": "mapping(address => uint256)",
        "numberOfBytes": "32",
        "value": "t_uint256"
      },
      "t_string_storage": {
        "encoding": "bytes",
        "label": "string",
        "numberOfBytes": "32"
      },
      "t_uint256": {
        "encoding": "inplace",
        "label": "uint256",
        "numberOfBytes": "32"
      }
    }
  }
}