{
  "address": "0xaA3593066935Beb4cF2A4dbC7F9c82a1A1a1ACE8",
  "abi": [
    {
      "inputs": [],
      "stateMutability": "nonpayable",
      "type": "constructor"
    },
    {
      "inputs": [
        {
          "internalType": "bytes32",
          "name": "_key",
          "type": "bytes32"
        }
      ],
      "name": "getAddress",
      "outputs": [
        {
          "internalType": "address",
          "name": "",
          "type": "address"
        }
      ],
      "stateMutability": "view",
      "type": "function"
    },
    {
      "inputs": [
        {
          "internalType": "bytes32",
          "name": "_key",
          "type": "bytes32"
        },
        {
          "internalType": "address",
          "name": "_value",
          "type": "address"
        }
      ],
      "name": "setAddress",
      "outputs": [],
      "stateMutability": "nonpayable",
      "type": "function"
    }
  ],
  "transactionHash": "0xd6ddf852479f02cdb6a8301c5aa90a964ba5c471ad4f7e3eef974282ce7d2204",
  "args": [],
  "solcInputHash": "a0eeb0cc880d1a331df35853c161539a",
  "bytecode": "0x608060405234801561001057600080fd5b5033600160006101000a81548173ffffffffffffffffffffffffffffffffffffffff021916908373ffffffffffffffffffffffffffffffffffffffff160217905550610398806100616000396000f3fe608060405234801561001057600080fd5b50600436106100365760003560e01c806321f8a7211461003b578063ca446dd91461006b575b600080fd5b610055600480360381019061005091906101d2565b610087565b60405161006291906102ac565b60405180910390f35b610085600480360381019061008091906101fb565b6100c3565b005b600080600083815260200190815260200160002060009054906101000a900473ffffffffffffffffffffffffffffffffffffffff169050919050565b3373ffffffffffffffffffffffffffffffffffffffff16600160009054906101000a900473ffffffffffffffffffffffffffffffffffffffff1673ffffffffffffffffffffffffffffffffffffffff1614610153576040517f08c379a000000000000000000000000000000000000000000000000000000000815260040161014a906102c7565b60405180910390fd5b8060008084815260200190815260200160002060006101000a81548173ffffffffffffffffffffffffffffffffffffffff021916908373ffffffffffffffffffffffffffffffffffffffff1602179055505050565b6000813590506101b781610334565b92915050565b6000813590506101cc8161034b565b92915050565b6000602082840312156101e457600080fd5b60006101f2848285016101bd565b91505092915050565b6000806040838503121561020e57600080fd5b600061021c858286016101bd565b925050602061022d858286016101a8565b9150509250929050565b610240816102f8565b82525050565b60006102536021836102e7565b91507f596f75206d75737420626520746865206f776e657220746f20646f207468617460008301527f2e000000000000000000000000000000000000000000000000000000000000006020830152604082019050919050565b60006020820190506102c16000830184610237565b92915050565b600060208201905081810360008301526102e081610246565b9050919050565b600082825260208201905092915050565b600061030382610314565b9050919050565b6000819050919050565b600073ffffffffffffffffffffffffffffffffffffffff82169050919050565b61033d816102f8565b811461034857600080fd5b50565b6103548161030a565b811461035f57600080fd5b5056fea2646970667358221220e7471c89ca70b10d65603c0ba04e8a013fb52ca105db12ba684979a156e3de9864736f6c63430008000033",
  "devdoc": {
    "kind": "dev",
    "methods": {},
    "version": 1
  },
  "userdoc": {
    "kind": "user",
    "methods": {},
    "version": 1
  },
  "storageLayout": {
    "storage": [
      {
        "astId": 3043,
        "contract": "contracts/stubs/RocketStorage.sol:RocketStorage",
        "label": "addresses",
        "offset": 0,
        "slot": "0",
        "type": "t_mapping(t_bytes32,t_address)"
      },
      {
        "astId": 3045,
        "contract": "contracts/stubs/RocketStorage.sol:RocketStorage",
        "label": "owner",
        "offset": 0,
        "slot": "1",
        "type": "t_address"
      }
    ],
    "types": {
      "t_address": {
        "encoding": "inplace",
        "label": "address",
        "numberOfBytes": "20"
      },
      "t_bytes32": {
        "encoding": "inplace",
        "label": "bytes32",
        "numberOfBytes": "32"
      },
      "t_mapping(t_bytes32,t_address)": {
        "encoding": "mapping",
        "key": "t_bytes32",
        "label": "mapping(bytes32 => address)",
        "numberOfBytes": "32",
        "value": "t_address"
      }
    }
  }
}