{
  "address": "0xe6B3F22370E38cfc094c8473087B7d520da08501",
  "abi": [
    {
      "inputs": [
        {
          "internalType": "address",
          "name": "_rocket_token_reth_address",
          "type": "address"
        }
      ],
      "stateMutability": "nonpayable",
      "type": "constructor"
    },
    {
      "inputs": [],
      "name": "deposit",
      "outputs": [],
      "stateMutability": "payable",
      "type": "function"
    }
  ],
  "transactionHash": "0x259122f0535e3e8312dbbb4da29597c3f75723a784f5228780b7305daa6f71cb",
  "args": [
    "0x3768920644220FAE13907E06583adAe485f670Ed"
  ],
  "solcInputHash": "a0eeb0cc880d1a331df35853c161539a",
  "bytecode": "0x608060405234801561001057600080fd5b5060405161025b38038061025b8339818101604052810190610032919061008d565b806000806101000a81548173ffffffffffffffffffffffffffffffffffffffff021916908373ffffffffffffffffffffffffffffffffffffffff160217905550506100ff565b600081519050610087816100e8565b92915050565b60006020828403121561009f57600080fd5b60006100ad84828501610078565b91505092915050565b60006100c1826100c8565b9050919050565b600073ffffffffffffffffffffffffffffffffffffffff82169050919050565b6100f1816100b6565b81146100fc57600080fd5b50565b61014d8061010e6000396000f3fe60806040526004361061001e5760003560e01c8063d0e30db014610023575b600080fd5b61002b61002d565b005b60008054906101000a900473ffffffffffffffffffffffffffffffffffffffff1673ffffffffffffffffffffffffffffffffffffffff16636a62784234336040518363ffffffff1660e01b815260040161008791906100ca565b6000604051808303818588803b1580156100a057600080fd5b505af11580156100b4573d6000803e3d6000fd5b5050505050565b6100c4816100e5565b82525050565b60006020820190506100df60008301846100bb565b92915050565b60006100f0826100f7565b9050919050565b600073ffffffffffffffffffffffffffffffffffffffff8216905091905056fea2646970667358221220a54237291560fa1bd269b1ea903c162b4eaeefebcd398a4b193ff7b7b8a5033b64736f6c63430008000033",
  "devdoc": {
    "kind": "dev",
    "methods": {},
    "version": 1
  },
  "userdoc": {
    "kind": "user",
    "methods": {},
    "version": 1
  },
  "storageLayout": {
    "storage": [
      {
        "astId": 2993,
        "contract": "contracts/stubs/RocketDepositPool.sol:RocketDepositPool",
        "label": "rocket_token_reth_address",
        "offset": 0,
        "slot": "0",
        "type": "t_address"
      }
    ],
    "types": {
      "t_address": {
        "encoding": "inplace",
        "label": "address",
        "numberOfBytes": "20"
      }
    }
  }
}